{
  "contractName": "ERC20",
  "abi": [
    {
      "anonymous": false,
      "inputs": [
        {
          "indexed": true,
          "internalType": "address",
          "name": "owner",
          "type": "address"
        },
        {
          "indexed": true,
          "internalType": "address",
          "name": "spender",
          "type": "address"
        },
        {
          "indexed": false,
          "internalType": "uint256",
          "name": "value",
          "type": "uint256"
        }
      ],
      "name": "Approval",
      "type": "event"
    },
    {
      "anonymous": false,
      "inputs": [
        {
          "indexed": true,
          "internalType": "address",
          "name": "from",
          "type": "address"
        },
        {
          "indexed": true,
          "internalType": "address",
          "name": "to",
          "type": "address"
        },
        {
          "indexed": false,
          "internalType": "uint256",
          "name": "value",
          "type": "uint256"
        }
      ],
      "name": "Transfer",
      "type": "event"
    },
    {
      "constant": true,
      "inputs": [],
      "name": "totalSupply",
      "outputs": [
        {
          "internalType": "uint256",
          "name": "",
          "type": "uint256"
        }
      ],
      "payable": false,
      "stateMutability": "view",
      "type": "function"
    },
    {
      "constant": true,
      "inputs": [
        {
          "internalType": "address",
          "name": "account",
          "type": "address"
        }
      ],
      "name": "balanceOf",
      "outputs": [
        {
          "internalType": "uint256",
          "name": "",
          "type": "uint256"
        }
      ],
      "payable": false,
      "stateMutability": "view",
      "type": "function"
    },
    {
      "constant": false,
      "inputs": [
        {
          "internalType": "address",
          "name": "recipient",
          "type": "address"
        },
        {
          "internalType": "uint256",
          "name": "amount",
          "type": "uint256"
        }
      ],
      "name": "transfer",
      "outputs": [
        {
          "internalType": "bool",
          "name": "",
          "type": "bool"
        }
      ],
      "payable": false,
      "stateMutability": "nonpayable",
      "type": "function"
    },
    {
      "constant": true,
      "inputs": [
        {
          "internalType": "address",
          "name": "owner",
          "type": "address"
        },
        {
          "internalType": "address",
          "name": "spender",
          "type": "address"
        }
      ],
      "name": "allowance",
      "outputs": [
        {
          "internalType": "uint256",
          "name": "",
          "type": "uint256"
        }
      ],
      "payable": false,
      "stateMutability": "view",
      "type": "function"
    },
    {
      "constant": false,
      "inputs": [
        {
          "internalType": "address",
          "name": "spender",
          "type": "address"
        },
        {
          "internalType": "uint256",
          "name": "amount",
          "type": "uint256"
        }
      ],
      "name": "approve",
      "outputs": [
        {
          "internalType": "bool",
          "name": "",
          "type": "bool"
        }
      ],
      "payable": false,
      "stateMutability": "nonpayable",
      "type": "function"
    },
    {
      "constant": false,
      "inputs": [
        {
          "internalType": "address",
          "name": "sender",
          "type": "address"
        },
        {
          "internalType": "address",
          "name": "recipient",
          "type": "address"
        },
        {
          "internalType": "uint256",
          "name": "amount",
          "type": "uint256"
        }
      ],
      "name": "transferFrom",
      "outputs": [
        {
          "internalType": "bool",
          "name": "",
          "type": "bool"
        }
      ],
      "payable": false,
      "stateMutability": "nonpayable",
      "type": "function"
    },
    {
      "constant": false,
      "inputs": [
        {
          "internalType": "address",
          "name": "spender",
          "type": "address"
        },
        {
          "internalType": "uint256",
          "name": "addedValue",
          "type": "uint256"
        }
      ],
      "name": "increaseAllowance",
      "outputs": [
        {
          "internalType": "bool",
          "name": "",
          "type": "bool"
        }
      ],
      "payable": false,
      "stateMutability": "nonpayable",
      "type": "function"
    },
    {
      "constant": false,
      "inputs": [
        {
          "internalType": "address",
          "name": "spender",
          "type": "address"
        },
        {
          "internalType": "uint256",
          "name": "subtractedValue",
          "type": "uint256"
        }
      ],
      "name": "decreaseAllowance",
      "outputs": [
        {
          "internalType": "bool",
          "name": "",
          "type": "bool"
        }
      ],
      "payable": false,
      "stateMutability": "nonpayable",
      "type": "function"
    }
  ],
  "bytecode": "0x608060405261083b806100136000396000f3fe608060405234801561001057600080fd5b50600436106100885760003560e01c806370a082311161005b57806370a0823114610149578063a457c2d71461016f578063a9059cbb1461019b578063dd62ed3e146101c757610088565b8063095ea7b31461008d57806318160ddd146100cd57806323b872dd146100e7578063395093511461011d575b600080fd5b6100b9600480360360408110156100a357600080fd5b506001600160a01b0381351690602001356101f5565b604080519115158252519081900360200190f35b6100d5610212565b60408051918252519081900360200190f35b6100b9600480360360608110156100fd57600080fd5b506001600160a01b03813581169160208101359091169060400135610218565b6100b96004803603604081101561013357600080fd5b506001600160a01b0381351690602001356102a5565b6100d56004803603602081101561015f57600080fd5b50356001600160a01b03166102f9565b6100b96004803603604081101561018557600080fd5b506001600160a01b038135169060200135610314565b6100b9600480360360408110156101b157600080fd5b506001600160a01b038135169060200135610382565b6100d5600480360360408110156101dd57600080fd5b506001600160a01b0381358116916020013516610396565b60006102096102026103c1565b84846103c5565b50600192915050565b60025490565b60006102258484846104b1565b61029b846102316103c1565b61029685604051806060016040528060288152602001610771602891396001600160a01b038a1660009081526001602052604081209061026f6103c1565b6001600160a01b03168152602081019190915260400160002054919063ffffffff61060d16565b6103c5565b5060019392505050565b60006102096102b26103c1565b8461029685600160006102c36103c1565b6001600160a01b03908116825260208083019390935260409182016000908120918c16815292529020549063ffffffff6106a416565b6001600160a01b031660009081526020819052604090205490565b60006102096103216103c1565b84610296856040518060600160405280602581526020016107e2602591396001600061034b6103c1565b6001600160a01b03908116825260208083019390935260409182016000908120918d1681529252902054919063ffffffff61060d16565b600061020961038f6103c1565b84846104b1565b6001600160a01b03918216600090815260016020908152604080832093909416825291909152205490565b3390565b6001600160a01b03831661040a5760405162461bcd60e51b81526004018080602001828103825260248152602001806107be6024913960400191505060405180910390fd5b6001600160a01b03821661044f5760405162461bcd60e51b81526004018080602001828103825260228152602001806107296022913960400191505060405180910390fd5b6001600160a01b03808416600081815260016020908152604080832094871680845294825291829020859055815185815291517f8c5be1e5ebec7d5bd14f71427d1e84f3dd0314c0f7b2291e5b200ac8c7c3b9259281900390910190a3505050565b6001600160a01b0383166104f65760405162461bcd60e51b81526004018080602001828103825260258152602001806107996025913960400191505060405180910390fd5b6001600160a01b03821661053b5760405162461bcd60e51b81526004018080602001828103825260238152602001806107066023913960400191505060405180910390fd5b61057e8160405180606001604052806026815260200161074b602691396001600160a01b038616600090815260208190526040902054919063ffffffff61060d16565b6001600160a01b0380851660009081526020819052604080822093909355908416815220546105b3908263ffffffff6106a416565b6001600160a01b038084166000818152602081815260409182902094909455805185815290519193928716927fddf252ad1be2c89b69c2b068fc378daa952ba7f163c4a11628f55a4df523b3ef92918290030190a3505050565b6000818484111561069c5760405162461bcd60e51b81526004018080602001828103825283818151815260200191508051906020019080838360005b83811015610661578181015183820152602001610649565b50505050905090810190601f16801561068e5780820380516001836020036101000a031916815260200191505b509250505060405180910390fd5b505050900390565b6000828201838110156106fe576040805162461bcd60e51b815260206004820152601b60248201527f536166654d6174683a206164646974696f6e206f766572666c6f770000000000604482015290519081900360640190fd5b939250505056fe45524332303a207472616e7366657220746f20746865207a65726f206164647265737345524332303a20617070726f766520746f20746865207a65726f206164647265737345524332303a207472616e7366657220616d6f756e7420657863656564732062616c616e636545524332303a207472616e7366657220616d6f756e74206578636565647320616c6c6f77616e636545524332303a207472616e736665722066726f6d20746865207a65726f206164647265737345524332303a20617070726f76652066726f6d20746865207a65726f206164647265737345524332303a2064656372656173656420616c6c6f77616e63652062656c6f77207a65726fa265627a7a72315820766b038de9b57932674ffad464b53dd2d20def2559e12a543713c7cb0ddc9c1464736f6c634300050f0032",
  "source": "/**\n *Submitted for verification at Etherscan.io on 2020-03-04\n*/\n\n// File: openzeppelin-solidity/contracts/GSN/Context.sol\n\npragma solidity ^0.5.0;\n\n/*\n * @dev Provides information about the current execution context, including the\n * sender of the transaction and its data. While these are generally available\n * via msg.sender and msg.data, they should not be accessed in such a direct\n * manner, since when dealing with GSN meta-transactions the account sending and\n * paying for execution may not be the actual sender (as far as an application\n * is concerned).\n *\n * This contract is only required for intermediate, library-like contracts.\n */\ncontract Context {\n\t// Empty internal constructor, to prevent people from mistakenly deploying\n\t// an instance of this contract, which should be used via inheritance.\n\tconstructor () internal { }\n\t// solhint-disable-previous-line no-empty-blocks\n\n\tfunction _msgSender() internal view returns (address payable) {\n\t\treturn msg.sender;\n\t}\n\n\tfunction _msgData() internal view returns (bytes memory) {\n\t\tthis; // silence state mutability warning without generating bytecode - see https://github.com/ethereum/solidity/issues/2691\n\t\treturn msg.data;\n\t}\n}\n\n// File: openzeppelin-solidity/contracts/token/ERC20/IERC20.sol\n\npragma solidity ^0.5.0;\n\n/**\n * @dev Interface of the ERC20 standard as defined in the EIP. Does not include\n * the optional functions; to access them see {ERC20Detailed}.\n */\ninterface IERC20 {\n\t/**\n\t * @dev Returns the amount of tokens in existence.\n\t */\n\tfunction totalSupply() external view returns (uint256);\n\n\t/**\n\t * @dev Returns the amount of tokens owned by `account`.\n\t */\n\tfunction balanceOf(address account) external view returns (uint256);\n\n\t/**\n\t * @dev Moves `amount` tokens from the caller's account to `recipient`.\n\t *\n\t * Returns a boolean value indicating whether the operation succeeded.\n\t *\n\t * Emits a {Transfer} event.\n\t */\n\tfunction transfer(address recipient, uint256 amount) external returns (bool);\n\n\t/**\n\t * @dev Returns the remaining number of tokens that `spender` will be\n\t * allowed to spend on behalf of `owner` through {transferFrom}. This is\n\t * zero by default.\n\t *\n\t * This value changes when {approve} or {transferFrom} are called.\n\t */\n\tfunction allowance(address owner, address spender) external view returns (uint256);\n\n\t/**\n\t * @dev Sets `amount` as the allowance of `spender` over the caller's tokens.\n\t *\n\t * Returns a boolean value indicating whether the operation succeeded.\n\t *\n\t * IMPORTANT: Beware that changing an allowance with this method brings the risk\n\t * that someone may use both the old and the new allowance by unfortunate\n\t * transaction ordering. One possible solution to mitigate this race\n\t * condition is to first reduce the spender's allowance to 0 and set the\n\t * desired value afterwards:\n\t * https://github.com/ethereum/EIPs/issues/20#issuecomment-263524729\n\t *\n\t * Emits an {Approval} event.\n\t */\n\tfunction approve(address spender, uint256 amount) external returns (bool);\n\n\t/**\n\t * @dev Moves `amount` tokens from `sender` to `recipient` using the\n\t * allowance mechanism. `amount` is then deducted from the caller's\n\t * allowance.\n\t *\n\t * Returns a boolean value indicating whether the operation succeeded.\n\t *\n\t * Emits a {Transfer} event.\n\t */\n\tfunction transferFrom(address sender, address recipient, uint256 amount) external returns (bool);\n\n\t/**\n\t * @dev Emitted when `value` tokens are moved from one account (`from`) to\n\t * another (`to`).\n\t *\n\t * Note that `value` may be zero.\n\t */\n\tevent Transfer(address indexed from, address indexed to, uint256 value);\n\n\t/**\n\t * @dev Emitted when the allowance of a `spender` for an `owner` is set by\n\t * a call to {approve}. `value` is the new allowance.\n\t */\n\tevent Approval(address indexed owner, address indexed spender, uint256 value);\n}\n\n// File: openzeppelin-solidity/contracts/math/SafeMath.sol\n\npragma solidity ^0.5.0;\n\n/**\n * @dev Wrappers over Solidity's arithmetic operations with added overflow\n * checks.\n *\n * Arithmetic operations in Solidity wrap on overflow. This can easily result\n * in bugs, because programmers usually assume that an overflow raises an\n * error, which is the standard behavior in high level programming languages.\n * `SafeMath` restores this intuition by reverting the transaction when an\n * operation overflows.\n *\n * Using this library instead of the unchecked operations eliminates an entire\n * class of bugs, so it's recommended to use it always.\n */\nlibrary SafeMath {\n\t/**\n\t * @dev Returns the addition of two unsigned integers, reverting on\n\t * overflow.\n\t *\n\t * Counterpart to Solidity's `+` operator.\n\t *\n\t * Requirements:\n\t * - Addition cannot overflow.\n\t */\n\tfunction add(uint256 a, uint256 b) internal pure returns (uint256) {\n\t\tuint256 c = a + b;\n\t\trequire(c >= a, \"SafeMath: addition overflow\");\n\n\t\treturn c;\n\t}\n\n\t/**\n\t * @dev Returns the subtraction of two unsigned integers, reverting on\n\t * overflow (when the result is negative).\n\t *\n\t * Counterpart to Solidity's `-` operator.\n\t *\n\t * Requirements:\n\t * - Subtraction cannot overflow.\n\t */\n\tfunction sub(uint256 a, uint256 b) internal pure returns (uint256) {\n\t\treturn sub(a, b, \"SafeMath: subtraction overflow\");\n\t}\n\n\t/**\n\t * @dev Returns the subtraction of two unsigned integers, reverting with custom message on\n\t * overflow (when the result is negative).\n\t *\n\t * Counterpart to Solidity's `-` operator.\n\t *\n\t * Requirements:\n\t * - Subtraction cannot overflow.\n\t *\n\t * _Available since v2.4.0._\n\t */\n\tfunction sub(uint256 a, uint256 b, string memory errorMessage) internal pure returns (uint256) {\n\t\trequire(b <= a, errorMessage);\n\t\tuint256 c = a - b;\n\n\t\treturn c;\n\t}\n\n\t/**\n\t * @dev Returns the multiplication of two unsigned integers, reverting on\n\t * overflow.\n\t *\n\t * Counterpart to Solidity's `*` operator.\n\t *\n\t * Requirements:\n\t * - Multiplication cannot overflow.\n\t */\n\tfunction mul(uint256 a, uint256 b) internal pure returns (uint256) {\n\t\t// Gas optimization: this is cheaper than requiring 'a' not being zero, but the\n\t\t// benefit is lost if 'b' is also tested.\n\t\t// See: https://github.com/OpenZeppelin/openzeppelin-contracts/pull/522\n\t\tif (a == 0) {\n\t\t\treturn 0;\n\t\t}\n\n\t\tuint256 c = a * b;\n\t\trequire(c / a == b, \"SafeMath: multiplication overflow\");\n\n\t\treturn c;\n\t}\n\n\t/**\n\t * @dev Returns the integer division of two unsigned integers. Reverts on\n\t * division by zero. The result is rounded towards zero.\n\t *\n\t * Counterpart to Solidity's `/` operator. Note: this function uses a\n\t * `revert` opcode (which leaves remaining gas untouched) while Solidity\n\t * uses an invalid opcode to revert (consuming all remaining gas).\n\t *\n\t * Requirements:\n\t * - The divisor cannot be zero.\n\t */\n\tfunction div(uint256 a, uint256 b) internal pure returns (uint256) {\n\t\treturn div(a, b, \"SafeMath: division by zero\");\n\t}\n\n\t/**\n\t * @dev Returns the integer division of two unsigned integers. Reverts with custom message on\n\t * division by zero. The result is rounded towards zero.\n\t *\n\t * Counterpart to Solidity's `/` operator. Note: this function uses a\n\t * `revert` opcode (which leaves remaining gas untouched) while Solidity\n\t * uses an invalid opcode to revert (consuming all remaining gas).\n\t *\n\t * Requirements:\n\t * - The divisor cannot be zero.\n\t *\n\t * _Available since v2.4.0._\n\t */\n\tfunction div(uint256 a, uint256 b, string memory errorMessage) internal pure returns (uint256) {\n\t\t// Solidity only automatically asserts when dividing by 0\n\t\trequire(b > 0, errorMessage);\n\t\tuint256 c = a / b;\n\t\t// assert(a == b * c + a % b); // There is no case in which this doesn't hold\n\n\t\treturn c;\n\t}\n\n\t/**\n\t * @dev Returns the remainder of dividing two unsigned integers. (unsigned integer modulo),\n\t * Reverts when dividing by zero.\n\t *\n\t * Counterpart to Solidity's `%` operator. This function uses a `revert`\n\t * opcode (which leaves remaining gas untouched) while Solidity uses an\n\t * invalid opcode to revert (consuming all remaining gas).\n\t *\n\t * Requirements:\n\t * - The divisor cannot be zero.\n\t */\n\tfunction mod(uint256 a, uint256 b) internal pure returns (uint256) {\n\t\treturn mod(a, b, \"SafeMath: modulo by zero\");\n\t}\n\n\t/**\n\t * @dev Returns the remainder of dividing two unsigned integers. (unsigned integer modulo),\n\t * Reverts with custom message when dividing by zero.\n\t *\n\t * Counterpart to Solidity's `%` operator. This function uses a `revert`\n\t * opcode (which leaves remaining gas untouched) while Solidity uses an\n\t * invalid opcode to revert (consuming all remaining gas).\n\t *\n\t * Requirements:\n\t * - The divisor cannot be zero.\n\t *\n\t * _Available since v2.4.0._\n\t */\n\tfunction mod(uint256 a, uint256 b, string memory errorMessage) internal pure returns (uint256) {\n\t\trequire(b != 0, errorMessage);\n\t\treturn a % b;\n\t}\n}\n\n// File: openzeppelin-solidity/contracts/token/ERC20/ERC20.sol\n\npragma solidity ^0.5.0;\n\n\n\n\n/**\n * @dev Implementation of the {IERC20} interface.\n *\n * This implementation is agnostic to the way tokens are created. This means\n * that a supply mechanism has to be added in a derived contract using {_mint}.\n * For a generic mechanism see {ERC20Mintable}.\n *\n * TIP: For a detailed writeup see our guide\n * https://forum.zeppelin.solutions/t/how-to-implement-erc20-supply-mechanisms/226[How\n * to implement supply mechanisms].\n *\n * We have followed general OpenZeppelin guidelines: functions revert instead\n * of returning `false` on failure. This behavior is nonetheless conventional\n * and does not conflict with the expectations of ERC20 applications.\n *\n * Additionally, an {Approval} event is emitted on calls to {transferFrom}.\n * This allows applications to reconstruct the allowance for all accounts just\n * by listening to said events. Other implementations of the EIP may not emit\n * these events, as it isn't required by the specification.\n *\n * Finally, the non-standard {decreaseAllowance} and {increaseAllowance}\n * functions have been added to mitigate the well-known issues around setting\n * allowances. See {IERC20-approve}.\n */\ncontract ERC20 is Context, IERC20 {\n\tusing SafeMath for uint256;\n\n\tmapping (address => uint256) private _balances;\n\n\tmapping (address => mapping (address => uint256)) private _allowances;\n\n\tuint256 private _totalSupply;\n\n\t/**\n\t * @dev See {IERC20-totalSupply}.\n\t */\n\tfunction totalSupply() public view returns (uint256) {\n\t\treturn _totalSupply;\n\t}\n\n\t/**\n\t * @dev See {IERC20-balanceOf}.\n\t */\n\tfunction balanceOf(address account) public view returns (uint256) {\n\t\treturn _balances[account];\n\t}\n\n\t/**\n\t * @dev See {IERC20-transfer}.\n\t *\n\t * Requirements:\n\t *\n\t * - `recipient` cannot be the zero address.\n\t * - the caller must have a balance of at least `amount`.\n\t */\n\tfunction transfer(address recipient, uint256 amount) public returns (bool) {\n\t\t_transfer(_msgSender(), recipient, amount);\n\t\treturn true;\n\t}\n\n\t/**\n\t * @dev See {IERC20-allowance}.\n\t */\n\tfunction allowance(address owner, address spender) public view returns (uint256) {\n\t\treturn _allowances[owner][spender];\n\t}\n\n\t/**\n\t * @dev See {IERC20-approve}.\n\t *\n\t * Requirements:\n\t *\n\t * - `spender` cannot be the zero address.\n\t */\n\tfunction approve(address spender, uint256 amount) public returns (bool) {\n\t\t_approve(_msgSender(), spender, amount);\n\t\treturn true;\n\t}\n\n\t/**\n\t * @dev See {IERC20-transferFrom}.\n\t *\n\t * Emits an {Approval} event indicating the updated allowance. This is not\n\t * required by the EIP. See the note at the beginning of {ERC20};\n\t *\n\t * Requirements:\n\t * - `sender` and `recipient` cannot be the zero address.\n\t * - `sender` must have a balance of at least `amount`.\n\t * - the caller must have allowance for `sender`'s tokens of at least\n\t * `amount`.\n\t */\n\tfunction transferFrom(address sender, address recipient, uint256 amount) public returns (bool) {\n\t\t_transfer(sender, recipient, amount);\n\t\t_approve(sender, _msgSender(), _allowances[sender][_msgSender()].sub(amount, \"ERC20: transfer amount exceeds allowance\"));\n\t\treturn true;\n\t}\n\n\t/**\n\t * @dev Atomically increases the allowance granted to `spender` by the caller.\n\t *\n\t * This is an alternative to {approve} that can be used as a mitigation for\n\t * problems described in {IERC20-approve}.\n\t *\n\t * Emits an {Approval} event indicating the updated allowance.\n\t *\n\t * Requirements:\n\t *\n\t * - `spender` cannot be the zero address.\n\t */\n\tfunction increaseAllowance(address spender, uint256 addedValue) public returns (bool) {\n\t\t_approve(_msgSender(), spender, _allowances[_msgSender()][spender].add(addedValue));\n\t\treturn true;\n\t}\n\n\t/**\n\t * @dev Atomically decreases the allowance granted to `spender` by the caller.\n\t *\n\t * This is an alternative to {approve} that can be used as a mitigation for\n\t * problems described in {IERC20-approve}.\n\t *\n\t * Emits an {Approval} event indicating the updated allowance.\n\t *\n\t * Requirements:\n\t *\n\t * - `spender` cannot be the zero address.\n\t * - `spender` must have allowance for the caller of at least\n\t * `subtractedValue`.\n\t */\n\tfunction decreaseAllowance(address spender, uint256 subtractedValue) public returns (bool) {\n\t\t_approve(_msgSender(), spender, _allowances[_msgSender()][spender].sub(subtractedValue, \"ERC20: decreased allowance below zero\"));\n\t\treturn true;\n\t}\n\n\t/**\n\t * @dev Moves tokens `amount` from `sender` to `recipient`.\n\t *\n\t * This is internal function is equivalent to {transfer}, and can be used to\n\t * e.g. implement automatic token fees, slashing mechanisms, etc.\n\t *\n\t * Emits a {Transfer} event.\n\t *\n\t * Requirements:\n\t *\n\t * - `sender` cannot be the zero address.\n\t * - `recipient` cannot be the zero address.\n\t * - `sender` must have a balance of at least `amount`.\n\t */\n\tfunction _transfer(address sender, address recipient, uint256 amount) internal {\n\t\trequire(sender != address(0), \"ERC20: transfer from the zero address\");\n\t\trequire(recipient != address(0), \"ERC20: transfer to the zero address\");\n\n\t\t_balances[sender] = _balances[sender].sub(amount, \"ERC20: transfer amount exceeds balance\");\n\t\t_balances[recipient] = _balances[recipient].add(amount);\n\t\temit Transfer(sender, recipient, amount);\n\t}\n\n\t/** @dev Creates `amount` tokens and assigns them to `account`, increasing\n\t * the total supply.\n\t *\n\t * Emits a {Transfer} event with `from` set to the zero address.\n\t *\n\t * Requirements\n\t *\n\t * - `to` cannot be the zero address.\n\t */\n\tfunction _mint(address account, uint256 amount) internal {\n\t\trequire(account != address(0), \"ERC20: mint to the zero address\");\n\n\t\t_totalSupply = _totalSupply.add(amount);\n\t\t_balances[account] = _balances[account].add(amount);\n\t\temit Transfer(address(0), account, amount);\n\t}\n\n\t /**\n\t * @dev Destroys `amount` tokens from `account`, reducing the\n\t * total supply.\n\t *\n\t * Emits a {Transfer} event with `to` set to the zero address.\n\t *\n\t * Requirements\n\t *\n\t * - `account` cannot be the zero address.\n\t * - `account` must have at least `amount` tokens.\n\t */\n\tfunction _burn(address account, uint256 amount) internal {\n\t\trequire(account != address(0), \"ERC20: burn from the zero address\");\n\n\t\t_balances[account] = _balances[account].sub(amount, \"ERC20: burn amount exceeds balance\");\n\t\t_totalSupply = _totalSupply.sub(amount);\n\t\temit Transfer(account, address(0), amount);\n\t}\n\n\t/**\n\t * @dev Sets `amount` as the allowance of `spender` over the `owner`s tokens.\n\t *\n\t * This is internal function is equivalent to `approve`, and can be used to\n\t * e.g. set automatic allowances for certain subsystems, etc.\n\t *\n\t * Emits an {Approval} event.\n\t *\n\t * Requirements:\n\t *\n\t * - `owner` cannot be the zero address.\n\t * - `spender` cannot be the zero address.\n\t */\n\tfunction _approve(address owner, address spender, uint256 amount) internal {\n\t\trequire(owner != address(0), \"ERC20: approve from the zero address\");\n\t\trequire(spender != address(0), \"ERC20: approve to the zero address\");\n\n\t\t_allowances[owner][spender] = amount;\n\t\temit Approval(owner, spender, amount);\n\t}\n\n\t/**\n\t * @dev Destroys `amount` tokens from `account`.`amount` is then deducted\n\t * from the caller's allowance.\n\t *\n\t * See {_burn} and {_approve}.\n\t */\n\tfunction _burnFrom(address account, uint256 amount) internal {\n\t\t_burn(account, amount);\n\t\t_approve(account, _msgSender(), _allowances[account][_msgSender()].sub(amount, \"ERC20: burn amount exceeds allowance\"));\n\t}\n}\n\n// File: openzeppelin-solidity/contracts/ownership/Ownable.sol\n\npragma solidity ^0.5.0;\n\n/**\n * @dev Contract module which provides a basic access control mechanism, where\n * there is an account (an owner) that can be granted exclusive access to\n * specific functions.\n *\n * This module is used through inheritance. It will make available the modifier\n * `onlyOwner`, which can be applied to your functions to restrict their use to\n * the owner.\n */\ncontract Ownable is Context {\n\taddress private _owner;\n\n\tevent OwnershipTransferred(address indexed previousOwner, address indexed newOwner);\n\n\t/**\n\t * @dev Initializes the contract setting the deployer as the initial owner.\n\t */\n\tconstructor () internal {\n\t\t_owner = _msgSender();\n\t\temit OwnershipTransferred(address(0), _owner);\n\t}\n\n\t/**\n\t * @dev Returns the address of the current owner.\n\t */\n\tfunction owner() public view returns (address) {\n\t\treturn _owner;\n\t}\n\n\t/**\n\t * @dev Throws if called by any account other than the owner.\n\t */\n\tmodifier onlyOwner() {\n\t\trequire(isOwner(), \"Ownable: caller is not the owner\");\n\t\t_;\n\t}\n\n\t/**\n\t * @dev Returns true if the caller is the current owner.\n\t */\n\tfunction isOwner() public view returns (bool) {\n\t\treturn _msgSender() == _owner;\n\t}\n\n\t/**\n\t * @dev Leaves the contract without owner. It will not be possible to call\n\t * `onlyOwner` functions anymore. Can only be called by the current owner.\n\t *\n\t * NOTE: Renouncing ownership will leave the contract without an owner,\n\t * thereby removing any functionality that is only available to the owner.\n\t */\n\tfunction renounceOwnership() public onlyOwner {\n\t\temit OwnershipTransferred(_owner, address(0));\n\t\t_owner = address(0);\n\t}\n\n\t/**\n\t * @dev Transfers ownership of the contract to a new account (`newOwner`).\n\t * Can only be called by the current owner.\n\t */\n\tfunction transferOwnership(address newOwner) public onlyOwner {\n\t\t_transferOwnership(newOwner);\n\t}\n\n\t/**\n\t * @dev Transfers ownership of the contract to a new account (`newOwner`).\n\t */\n\tfunction _transferOwnership(address newOwner) internal {\n\t\trequire(newOwner != address(0), \"Ownable: new owner is the zero address\");\n\t\temit OwnershipTransferred(_owner, newOwner);\n\t\t_owner = newOwner;\n\t}\n}\n\n// File: contracts/LockToken.sol\n\npragma solidity 0.5.15;\n\n\n\n\ncontract LockToken is ERC20, Ownable {\n\n\tuint public initialSupply = 1000;\n\n\tstring public name = \"Lock Protocol Token\";\n\tstring public symbol = \"LOCK\";\n\tuint8 public decimals = 18;\n\n\n\tconstructor() public {\n\t\t// mint totalTokensAmount times 10^decimals for operator\n\t\t_mint(msg.sender, initialSupply  * (10 ** uint256(decimals)));\n\t}\n\n\t/**\n\t * @dev See {ERC20-_mint}.\n\t *\n\t * Requirements:\n\t *\n\t * - the caller must have the owner.\n\t */\n\tfunction mint(\n\t\taddress account,\n\t\tuint256 amount\n\t)\n\t\texternal\n\t\tonlyOwner\n\t\treturns(bool)\n\t{\n\t\t_mint(account, amount);\n\t\treturn true;\n\t}\n\n\t/**\n\t * @dev Destroys `amount` tokens from the caller.\n\t *\n\t * See {ERC20-_burn}.\n\t * Only owner should call this function\n\t */\n\tfunction burn(uint256 amount) external onlyOwner {\n\t\t_burn(_msgSender(), amount);\n\t}\n\n\t/**\n\t * @dev See {ERC20-_burnFrom}.\n\t * Only owner should call this function\n\t */\n\tfunction burnFrom(address account, uint256 amount) external onlyOwner {\n\t\t_burnFrom(account, amount);\n\t}\n}",
  "sourcePath": "/Users/josheason/Desktop/Dapp2.5/contracts/LockToken.sol",
  "compiler": {
    "name": "solc",
    "version": "0.5.15+commit.6a57276f.Emscripten.clang"
  },
  "schemaVersion": "3.0.23",
  "updatedAt": "2020-12-31T14:45:14.768Z",
  "devdoc": {
    "details": "Implementation of the {IERC20} interface. * This implementation is agnostic to the way tokens are created. This means that a supply mechanism has to be added in a derived contract using {_mint}. For a generic mechanism see {ERC20Mintable}. * TIP: For a detailed writeup see our guide https://forum.zeppelin.solutions/t/how-to-implement-erc20-supply-mechanisms/226[How to implement supply mechanisms]. * We have followed general OpenZeppelin guidelines: functions revert instead of returning `false` on failure. This behavior is nonetheless conventional and does not conflict with the expectations of ERC20 applications. * Additionally, an {Approval} event is emitted on calls to {transferFrom}. This allows applications to reconstruct the allowance for all accounts just by listening to said events. Other implementations of the EIP may not emit these events, as it isn't required by the specification. * Finally, the non-standard {decreaseAllowance} and {increaseAllowance} functions have been added to mitigate the well-known issues around setting allowances. See {IERC20-approve}.",
    "methods": {
      "allowance(address,address)": {
        "details": "See {IERC20-allowance}."
      },
      "approve(address,uint256)": {
        "details": "See {IERC20-approve}.\t * Requirements:\t * - `spender` cannot be the zero address."
      },
      "balanceOf(address)": {
        "details": "See {IERC20-balanceOf}."
      },
      "decreaseAllowance(address,uint256)": {
        "details": "Atomically decreases the allowance granted to `spender` by the caller.\t * This is an alternative to {approve} that can be used as a mitigation for problems described in {IERC20-approve}.\t * Emits an {Approval} event indicating the updated allowance.\t * Requirements:\t * - `spender` cannot be the zero address. - `spender` must have allowance for the caller of at least `subtractedValue`."
      },
      "increaseAllowance(address,uint256)": {
        "details": "Atomically increases the allowance granted to `spender` by the caller.\t * This is an alternative to {approve} that can be used as a mitigation for problems described in {IERC20-approve}.\t * Emits an {Approval} event indicating the updated allowance.\t * Requirements:\t * - `spender` cannot be the zero address."
      },
      "totalSupply()": {
        "details": "See {IERC20-totalSupply}."
      },
      "transfer(address,uint256)": {
        "details": "See {IERC20-transfer}.\t * Requirements:\t * - `recipient` cannot be the zero address. - the caller must have a balance of at least `amount`."
      },
      "transferFrom(address,address,uint256)": {
        "details": "See {IERC20-transferFrom}.\t * Emits an {Approval} event indicating the updated allowance. This is not required by the EIP. See the note at the beginning of {ERC20};\t * Requirements: - `sender` and `recipient` cannot be the zero address. - `sender` must have a balance of at least `amount`. - the caller must have allowance for `sender`'s tokens of at least `amount`."
      }
    }
  },
  "userdoc": {
    "methods": {}
  }
}